{
  "contractName": "register",
  "abi": [
    {
      "inputs": [],
      "stateMutability": "nonpayable",
      "type": "constructor"
    },
    {
      "inputs": [
        {
          "internalType": "address",
          "name": "distributorwallet",
          "type": "address"
        },
        {
          "internalType": "string",
          "name": "distributorname",
          "type": "string"
        },
        {
          "internalType": "string",
          "name": "distributoremail",
          "type": "string"
        },
        {
          "internalType": "string",
          "name": "distributormobile",
          "type": "string"
        },
        {
          "internalType": "string",
          "name": "distributoraddress",
          "type": "string"
        },
        {
          "internalType": "string",
          "name": "password",
          "type": "string"
        }
      ],
      "name": "addDistributor",
      "outputs": [],
      "stateMutability": "nonpayable",
      "type": "function"
    },
    {
      "inputs": [],
      "name": "viewDistributors",
      "outputs": [
        {
          "internalType": "address[]",
          "name": "",
          "type": "address[]"
        },
        {
          "internalType": "string[]",
          "name": "",
          "type": "string[]"
        },
        {
          "internalType": "string[]",
          "name": "",
          "type": "string[]"
        },
        {
          "internalType": "string[]",
          "name": "",
          "type": "string[]"
        },
        {
          "internalType": "string[]",
          "name": "",
          "type": "string[]"
        },
        {
          "internalType": "string[]",
          "name": "",
          "type": "string[]"
        }
      ],
      "stateMutability": "view",
      "type": "function",
      "constant": true
    }
  ],
  "bytecode": "0x608060405234801561001057600080fd5b5033600660006101000a81548173ffffffffffffffffffffffffffffffffffffffff021916908373ffffffffffffffffffffffffffffffffffffffff16021790555061103f806100616000396000f3fe608060405234801561001057600080fd5b50600436106100365760003560e01c8063015fa1651461003b578063a3f13a2c1461005e575b600080fd5b61004361007a565b60405161005596959493929190610a08565b60405180910390f35b61007860048036038101906100739190610c08565b61054a565b005b6060806060806060806001600060026003600460058580548060200260200160405190810160405280929190818152602001828054801561011057602002820191906000526020600020905b8160009054906101000a900473ffffffffffffffffffffffffffffffffffffffff1673ffffffffffffffffffffffffffffffffffffffff16815260200190600101908083116100c6575b5050505050955084805480602002602001604051908101604052809291908181526020016000905b828210156101e457838290600052602060002001805461015790610d50565b80601f016020809104026020016040519081016040528092919081815260200182805461018390610d50565b80156101d05780601f106101a5576101008083540402835291602001916101d0565b820191906000526020600020905b8154815290600101906020018083116101b357829003601f168201915b505050505081526020019060010190610138565b50505050945083805480602002602001604051908101604052809291908181526020016000905b828210156102b757838290600052602060002001805461022a90610d50565b80601f016020809104026020016040519081016040528092919081815260200182805461025690610d50565b80156102a35780601f10610278576101008083540402835291602001916102a3565b820191906000526020600020905b81548152906001019060200180831161028657829003601f168201915b50505050508152602001906001019061020b565b50505050935082805480602002602001604051908101604052809291908181526020016000905b8282101561038a5783829060005260206000200180546102fd90610d50565b80601f016020809104026020016040519081016040528092919081815260200182805461032990610d50565b80156103765780601f1061034b57610100808354040283529160200191610376565b820191906000526020600020905b81548152906001019060200180831161035957829003601f168201915b5050505050815260200190600101906102de565b50505050925081805480602002602001604051908101604052809291908181526020016000905b8282101561045d5783829060005260206000200180546103d090610d50565b80601f01602080910402602001604051908101604052809291908181526020018280546103fc90610d50565b80156104495780601f1061041e57610100808354040283529160200191610449565b820191906000526020600020905b81548152906001019060200180831161042c57829003601f168201915b5050505050815260200190600101906103b1565b50505050915080805480602002602001604051908101604052809291908181526020016000905b828210156105305783829060005260206000200180546104a390610d50565b80601f01602080910402602001604051908101604052809291908181526020018280546104cf90610d50565b801561051c5780601f106104f15761010080835404028352916020019161051c565b820191906000526020600020905b8154815290600101906020018083116104ff57829003601f168201915b505050505081526020019060010190610484565b505050509050955095509550955095509550909192939495565b600660009054906101000a900473ffffffffffffffffffffffffffffffffffffffff1673ffffffffffffffffffffffffffffffffffffffff163373ffffffffffffffffffffffffffffffffffffffff16146105a457600080fd5b600760008773ffffffffffffffffffffffffffffffffffffffff1673ffffffffffffffffffffffffffffffffffffffff16815260200190815260200160002060009054906101000a900460ff166105fa57600080fd5b6001869080600181540180825580915050600190039060005260206000200160009091909190916101000a81548173ffffffffffffffffffffffffffffffffffffffff021916908373ffffffffffffffffffffffffffffffffffffffff1602179055506000859080600181540180825580915050600190039060005260206000200160009091909190915090816106919190610f37565b506002849080600181540180825580915050600190039060005260206000200160009091909190915090816106c69190610f37565b506003839080600181540180825580915050600190039060005260206000200160009091909190915090816106fb9190610f37565b506004829080600181540180825580915050600190039060005260206000200160009091909190915090816107309190610f37565b506005819080600181540180825580915050600190039060005260206000200160009091909190915090816107659190610f37565b506001600760008873ffffffffffffffffffffffffffffffffffffffff1673ffffffffffffffffffffffffffffffffffffffff16815260200190815260200160002060006101000a81548160ff021916908315150217905550505050505050565b600081519050919050565b600082825260208201905092915050565b6000819050602082019050919050565b600073ffffffffffffffffffffffffffffffffffffffff82169050919050565b600061081d826107f2565b9050919050565b61082d81610812565b82525050565b600061083f8383610824565b60208301905092915050565b6000602082019050919050565b6000610863826107c6565b61086d81856107d1565b9350610878836107e2565b8060005b838110156108a95781516108908882610833565b975061089b8361084b565b92505060018101905061087c565b5085935050505092915050565b600081519050919050565b600082825260208201905092915050565b6000819050602082019050919050565b600081519050919050565b600082825260208201905092915050565b60005b8381101561091c578082015181840152602081019050610901565b60008484015250505050565b6000601f19601f8301169050919050565b6000610944826108e2565b61094e81856108ed565b935061095e8185602086016108fe565b61096781610928565b840191505092915050565b600061097e8383610939565b905092915050565b6000602082019050919050565b600061099e826108b6565b6109a881856108c1565b9350836020820285016109ba856108d2565b8060005b858110156109f657848403895281516109d78582610972565b94506109e283610986565b925060208a019950506001810190506109be565b50829750879550505050505092915050565b600060c0820190508181036000830152610a228189610858565b90508181036020830152610a368188610993565b90508181036040830152610a4a8187610993565b90508181036060830152610a5e8186610993565b90508181036080830152610a728185610993565b905081810360a0830152610a868184610993565b9050979650505050505050565b6000604051905090565b600080fd5b600080fd5b610ab081610812565b8114610abb57600080fd5b50565b600081359050610acd81610aa7565b92915050565b600080fd5b600080fd5b7f4e487b7100000000000000000000000000000000000000000000000000000000600052604160045260246000fd5b610b1582610928565b810181811067ffffffffffffffff82111715610b3457610b33610add565b5b80604052505050565b6000610b47610a93565b9050610b538282610b0c565b919050565b600067ffffffffffffffff821115610b7357610b72610add565b5b610b7c82610928565b9050602081019050919050565b82818337600083830152505050565b6000610bab610ba684610b58565b610b3d565b905082815260208101848484011115610bc757610bc6610ad8565b5b610bd2848285610b89565b509392505050565b600082601f830112610bef57610bee610ad3565b5b8135610bff848260208601610b98565b91505092915050565b60008060008060008060c08789031215610c2557610c24610a9d565b5b6000610c3389828a01610abe565b965050602087013567ffffffffffffffff811115610c5457610c53610aa2565b5b610c6089828a01610bda565b955050604087013567ffffffffffffffff811115610c8157610c80610aa2565b5b610c8d89828a01610bda565b945050606087013567ffffffffffffffff811115610cae57610cad610aa2565b5b610cba89828a01610bda565b935050608087013567ffffffffffffffff811115610cdb57610cda610aa2565b5b610ce789828a01610bda565b92505060a087013567ffffffffffffffff811115610d0857610d07610aa2565b5b610d1489828a01610bda565b9150509295509295509295565b7f4e487b7100000000000000000000000000000000000000000000000000000000600052602260045260246000fd5b60006002820490506001821680610d6857607f821691505b602082108103610d7b57610d7a610d21565b5b50919050565b60008190508160005260206000209050919050565b60006020601f8301049050919050565b600082821b905092915050565b600060088302610de37fffffffffffffffffffffffffffffffffffffffffffffffffffffffffffffffff82610da6565b610ded8683610da6565b95508019841693508086168417925050509392505050565b6000819050919050565b6000819050919050565b6000610e34610e2f610e2a84610e05565b610e0f565b610e05565b9050919050565b6000819050919050565b610e4e83610e19565b610e62610e5a82610e3b565b848454610db3565b825550505050565b600090565b610e77610e6a565b610e82818484610e45565b505050565b5b81811015610ea657610e9b600082610e6f565b600181019050610e88565b5050565b601f821115610eeb57610ebc81610d81565b610ec584610d96565b81016020851015610ed4578190505b610ee8610ee085610d96565b830182610e87565b50505b505050565b600082821c905092915050565b6000610f0e60001984600802610ef0565b1980831691505092915050565b6000610f278383610efd565b9150826002028217905092915050565b610f40826108e2565b67ffffffffffffffff811115610f5957610f58610add565b5b610f638254610d50565b610f6e828285610eaa565b600060209050601f831160018114610fa15760008415610f8f578287015190505b610f998582610f1b565b865550611001565b601f198416610faf86610d81565b60005b82811015610fd757848901518255600182019150602085019450602081019050610fb2565b86831015610ff45784890151610ff0601f891682610efd565b8355505b6001600288020188555050505b50505050505056fea26469706673582212202049b30e1b19b9cb948b653765b7028ee89b1455a24f1501de7988fc0b84d87064736f6c63430008130033",
  "immutableReferences": {},
  "source": "// SPDX-License-Identifier: MIT\npragma solidity >=0.4.22 <0.9.0;\n\ncontract register {\n\n  string[] _distributornames;\n  address[] _distributorwallets;\n  string[] _distributoremails;\n  string[] _distributormobiles;\n  string[] _distributoraddress;\n  string[] _distributorpasswords;\n\n  address manufacturer;\n  mapping(address=>bool) _registeredDistributors;\n  \n  constructor() {\n    manufacturer=msg.sender;\n  }\n\n  modifier onlyManufacturer(){\n    require(msg.sender==manufacturer);\n    _;\n  }\n\n  function addDistributor(address distributorwallet,string memory distributorname,string memory distributoremail,string memory distributormobile,string memory distributoraddress,string memory password) public onlyManufacturer{\n    require(_registeredDistributors[distributorwallet]);\n\n    _distributorwallets.push(distributorwallet);\n    _distributornames.push(distributorname);\n    _distributoremails.push(distributoremail);\n    _distributormobiles.push(distributormobile);\n    _distributoraddress.push(distributoraddress);\n    _distributorpasswords.push(password);\n\n    _registeredDistributors[distributorwallet]=true;\n  }\n\n  function viewDistributors() public view returns(address[] memory,string[] memory,string[] memory,string[] memory,string[] memory,string[] memory) {\n    return(_distributorwallets,_distributornames,_distributoremails,_distributormobiles,_distributoraddress,_distributorpasswords);\n  }\n  \n}\n",
  "sourcePath": "/Users/ms/Desktop/medical-supplychain-kits/contracts/register.sol",
  "compiler": {
    "name": "solc",
    "version": "0.8.19+commit.7dd6d404.Emscripten.clang"
  },
  "schemaVersion": "3.4.16",
  "updatedAt": "2024-03-03T16:33:16.742Z",
  "networkType": "ethereum",
  "devdoc": {
    "kind": "dev",
    "methods": {},
    "version": 1
  },
  "userdoc": {
    "kind": "user",
    "methods": {},
    "version": 1
  }
}