{
  "contractName": "register",
  "abi": [
    {
      "inputs": [],
      "stateMutability": "nonpayable",
      "type": "constructor"
    },
    {
      "inputs": [],
      "name": "viewManufacturer",
      "outputs": [
        {
          "internalType": "address",
          "name": "",
          "type": "address"
        },
        {
          "internalType": "string",
          "name": "",
          "type": "string"
        }
      ],
      "stateMutability": "view",
      "type": "function",
      "constant": true
    },
    {
      "inputs": [
        {
          "internalType": "uint256",
          "name": "did",
          "type": "uint256"
        },
        {
          "internalType": "string",
          "name": "dname",
          "type": "string"
        },
        {
          "internalType": "string",
          "name": "dcontact",
          "type": "string"
        },
        {
          "internalType": "string",
          "name": "daddress",
          "type": "string"
        },
        {
          "internalType": "string",
          "name": "demail",
          "type": "string"
        },
        {
          "internalType": "string",
          "name": "dphone",
          "type": "string"
        },
        {
          "internalType": "string",
          "name": "dtin",
          "type": "string"
        },
        {
          "internalType": "string",
          "name": "dbrn",
          "type": "string"
        },
        {
          "internalType": "address",
          "name": "wallet",
          "type": "address"
        },
        {
          "internalType": "string",
          "name": "demergency",
          "type": "string"
        },
        {
          "internalType": "string",
          "name": "dpassword",
          "type": "string"
        }
      ],
      "name": "addDistributor",
      "outputs": [],
      "stateMutability": "nonpayable",
      "type": "function"
    },
    {
      "inputs": [],
      "name": "viewDistributors",
      "outputs": [
        {
          "internalType": "uint256[]",
          "name": "",
          "type": "uint256[]"
        },
        {
          "internalType": "string[]",
          "name": "",
          "type": "string[]"
        },
        {
          "internalType": "string[]",
          "name": "",
          "type": "string[]"
        },
        {
          "internalType": "string[]",
          "name": "",
          "type": "string[]"
        },
        {
          "internalType": "string[]",
          "name": "",
          "type": "string[]"
        },
        {
          "internalType": "string[]",
          "name": "",
          "type": "string[]"
        },
        {
          "internalType": "string[]",
          "name": "",
          "type": "string[]"
        },
        {
          "internalType": "string[]",
          "name": "",
          "type": "string[]"
        },
        {
          "internalType": "address[]",
          "name": "",
          "type": "address[]"
        },
        {
          "internalType": "string[]",
          "name": "",
          "type": "string[]"
        },
        {
          "internalType": "string[]",
          "name": "",
          "type": "string[]"
        }
      ],
      "stateMutability": "view",
      "type": "function",
      "constant": true
    },
    {
      "inputs": [
        {
          "internalType": "uint256",
          "name": "sid",
          "type": "uint256"
        },
        {
          "internalType": "string",
          "name": "sname",
          "type": "string"
        },
        {
          "internalType": "string",
          "name": "scontact",
          "type": "string"
        },
        {
          "internalType": "string",
          "name": "saddress",
          "type": "string"
        },
        {
          "internalType": "string",
          "name": "semail",
          "type": "string"
        },
        {
          "internalType": "string",
          "name": "sphone",
          "type": "string"
        },
        {
          "internalType": "string",
          "name": "stin",
          "type": "string"
        },
        {
          "internalType": "string",
          "name": "sbrn",
          "type": "string"
        },
        {
          "internalType": "address",
          "name": "swallet",
          "type": "address"
        },
        {
          "internalType": "string",
          "name": "semergency",
          "type": "string"
        },
        {
          "internalType": "string",
          "name": "spassword",
          "type": "string"
        }
      ],
      "name": "addSupplier",
      "outputs": [],
      "stateMutability": "nonpayable",
      "type": "function"
    },
    {
      "inputs": [],
      "name": "viewSuppliers",
      "outputs": [
        {
          "internalType": "uint256[]",
          "name": "",
          "type": "uint256[]"
        },
        {
          "internalType": "string[]",
          "name": "",
          "type": "string[]"
        },
        {
          "internalType": "string[]",
          "name": "",
          "type": "string[]"
        },
        {
          "internalType": "string[]",
          "name": "",
          "type": "string[]"
        },
        {
          "internalType": "string[]",
          "name": "",
          "type": "string[]"
        },
        {
          "internalType": "string[]",
          "name": "",
          "type": "string[]"
        },
        {
          "internalType": "string[]",
          "name": "",
          "type": "string[]"
        },
        {
          "internalType": "string[]",
          "name": "",
          "type": "string[]"
        },
        {
          "internalType": "address[]",
          "name": "",
          "type": "address[]"
        },
        {
          "internalType": "string[]",
          "name": "",
          "type": "string[]"
        },
        {
          "internalType": "string[]",
          "name": "",
          "type": "string[]"
        }
      ],
      "stateMutability": "view",
      "type": "function",
      "constant": true
    },
    {
      "inputs": [
        {
          "internalType": "string",
          "name": "productid",
          "type": "string"
        },
        {
          "internalType": "string",
          "name": "productname",
          "type": "string"
        },
        {
          "internalType": "string",
          "name": "manufacturerinfo",
          "type": "string"
        },
        {
          "internalType": "string",
          "name": "lotnumber",
          "type": "string"
        },
        {
          "internalType": "string",
          "name": "manufacturingdate",
          "type": "string"
        },
        {
          "internalType": "string",
          "name": "expirationdate",
          "type": "string"
        },
        {
          "internalType": "string",
          "name": "serialnumber",
          "type": "string"
        },
        {
          "internalType": "string",
          "name": "uid",
          "type": "string"
        }
      ],
      "name": "addProduct",
      "outputs": [],
      "stateMutability": "nonpayable",
      "type": "function"
    },
    {
      "inputs": [],
      "name": "viewProducts",
      "outputs": [
        {
          "internalType": "string[]",
          "name": "",
          "type": "string[]"
        },
        {
          "internalType": "string[]",
          "name": "",
          "type": "string[]"
        },
        {
          "internalType": "string[]",
          "name": "",
          "type": "string[]"
        },
        {
          "internalType": "string[]",
          "name": "",
          "type": "string[]"
        },
        {
          "internalType": "string[]",
          "name": "",
          "type": "string[]"
        },
        {
          "internalType": "string[]",
          "name": "",
          "type": "string[]"
        },
        {
          "internalType": "string[]",
          "name": "",
          "type": "string[]"
        },
        {
          "internalType": "string[]",
          "name": "",
          "type": "string[]"
        },
        {
          "internalType": "uint256[]",
          "name": "",
          "type": "uint256[]"
        }
      ],
      "stateMutability": "view",
      "type": "function",
      "constant": true
    },
    {
      "inputs": [
        {
          "internalType": "string",
          "name": "productid",
          "type": "string"
        },
        {
          "internalType": "string",
          "name": "distributorid",
          "type": "string"
        }
      ],
      "name": "sendtodistributor",
      "outputs": [],
      "stateMutability": "nonpayable",
      "type": "function"
    },
    {
      "inputs": [],
      "name": "viewDistribution",
      "outputs": [
        {
          "internalType": "string[]",
          "name": "",
          "type": "string[]"
        },
        {
          "internalType": "string[]",
          "name": "",
          "type": "string[]"
        }
      ],
      "stateMutability": "view",
      "type": "function",
      "constant": true
    },
    {
      "inputs": [
        {
          "internalType": "string",
          "name": "productid",
          "type": "string"
        },
        {
          "internalType": "string",
          "name": "supplierid",
          "type": "string"
        }
      ],
      "name": "sendtosupplier",
      "outputs": [],
      "stateMutability": "nonpayable",
      "type": "function"
    },
    {
      "inputs": [],
      "name": "viewSupply",
      "outputs": [
        {
          "internalType": "string[]",
          "name": "",
          "type": "string[]"
        },
        {
          "internalType": "string[]",
          "name": "",
          "type": "string[]"
        }
      ],
      "stateMutability": "view",
      "type": "function",
      "constant": true
    }
  ],
  "bytecode": "0x60806040526040518060400160405280600481526020017f3132333400000000000000000000000000000000000000000000000000000000815250602490816200004a91906200031a565b503480156200005857600080fd5b5033602360006101000a81548173ffffffffffffffffffffffffffffffffffffffff021916908373ffffffffffffffffffffffffffffffffffffffff16021790555062000401565b600081519050919050565b7f4e487b7100000000000000000000000000000000000000000000000000000000600052604160045260246000fd5b7f4e487b7100000000000000000000000000000000000000000000000000000000600052602260045260246000fd5b600060028204905060018216806200012257607f821691505b602082108103620001385762000137620000da565b5b50919050565b60008190508160005260206000209050919050565b60006020601f8301049050919050565b600082821b905092915050565b600060088302620001a27fffffffffffffffffffffffffffffffffffffffffffffffffffffffffffffffff8262000163565b620001ae868362000163565b95508019841693508086168417925050509392505050565b6000819050919050565b6000819050919050565b6000620001fb620001f5620001ef84620001c6565b620001d0565b620001c6565b9050919050565b6000819050919050565b6200021783620001da565b6200022f620002268262000202565b84845462000170565b825550505050565b600090565b6200024662000237565b620002538184846200020c565b505050565b5b818110156200027b576200026f6000826200023c565b60018101905062000259565b5050565b601f821115620002ca5762000294816200013e565b6200029f8462000153565b81016020851015620002af578190505b620002c7620002be8562000153565b83018262000258565b50505b505050565b600082821c905092915050565b6000620002ef60001984600802620002cf565b1980831691505092915050565b60006200030a8383620002dc565b9150826002028217905092915050565b6200032582620000a0565b67ffffffffffffffff811115620003415762000340620000ab565b5b6200034d825462000109565b6200035a8282856200027f565b600060209050601f8311600181146200039257600084156200037d578287015190505b620003898582620002fc565b865550620003f9565b601f198416620003a2866200013e565b60005b82811015620003cc57848901518255600182019150602085019450602081019050620003a5565b86831015620003ec5784890151620003e8601f891682620002dc565b8355505b6001600288020188555050505b505050505050565b6139de80620004116000396000f3fe608060405234801561001057600080fd5b50600436106100a95760003560e01c806388f0f8ec1161007157806388f0f8ec1461014c578063a434749814610168578063b08ff10514610190578063d41bd7c7146101af578063e89ccbaf146101cb578063f9f24da1146101e7576100a9565b8063015fa165146100ae57806327090a97146100d65780633c573a6c146100f25780635f2771941461011157806378c24b5714610130575b600080fd5b6100b661020d565b6040516100cd9b9a99989796959493929190612d14565b60405180910390f35b6100f060048036038101906100eb9190612f55565b610a9c565b005b6100fa610ce5565b604051610108929190613144565b60405180910390f35b610119610da2565b604051610127929190613174565b60405180910390f35b61014a600480360381019061014591906131ab565b610f57565b005b610166600480360381019061016191906131ab565b6110a9565b005b6101706111fb565b6040516101879b9a99989796959493929190612d14565b60405180910390f35b610198611a8a565b6040516101a6929190613174565b60405180910390f35b6101c960048036038101906101c4919061327b565b611c3f565b005b6101e560048036038101906101e0919061327b565b611fbe565b005b6101ef6122e3565b6040516102049998979695949392919061346b565b60405180910390f35b60608060608060608060608060608060606000600160026003600460056006600760086009600a8a80548060200260200160405190810160405280929190818152602001828054801561027f57602002820191906000526020600020905b81548152602001906001019080831161026b575b50505050509a5089805480602002602001604051908101604052809291908181526020016000905b828210156103535783829060005260206000200180546102c690613566565b80601f01602080910402602001604051908101604052809291908181526020018280546102f290613566565b801561033f5780601f106103145761010080835404028352916020019161033f565b820191906000526020600020905b81548152906001019060200180831161032257829003601f168201915b5050505050815260200190600101906102a7565b50505050995088805480602002602001604051908101604052809291908181526020016000905b8282101561042657838290600052602060002001805461039990613566565b80601f01602080910402602001604051908101604052809291908181526020018280546103c590613566565b80156104125780601f106103e757610100808354040283529160200191610412565b820191906000526020600020905b8154815290600101906020018083116103f557829003601f168201915b50505050508152602001906001019061037a565b50505050985087805480602002602001604051908101604052809291908181526020016000905b828210156104f957838290600052602060002001805461046c90613566565b80601f016020809104026020016040519081016040528092919081815260200182805461049890613566565b80156104e55780601f106104ba576101008083540402835291602001916104e5565b820191906000526020600020905b8154815290600101906020018083116104c857829003601f168201915b50505050508152602001906001019061044d565b50505050975086805480602002602001604051908101604052809291908181526020016000905b828210156105cc57838290600052602060002001805461053f90613566565b80601f016020809104026020016040519081016040528092919081815260200182805461056b90613566565b80156105b85780601f1061058d576101008083540402835291602001916105b8565b820191906000526020600020905b81548152906001019060200180831161059b57829003601f168201915b505050505081526020019060010190610520565b50505050965085805480602002602001604051908101604052809291908181526020016000905b8282101561069f57838290600052602060002001805461061290613566565b80601f016020809104026020016040519081016040528092919081815260200182805461063e90613566565b801561068b5780601f106106605761010080835404028352916020019161068b565b820191906000526020600020905b81548152906001019060200180831161066e57829003601f168201915b5050505050815260200190600101906105f3565b50505050955084805480602002602001604051908101604052809291908181526020016000905b828210156107725783829060005260206000200180546106e590613566565b80601f016020809104026020016040519081016040528092919081815260200182805461071190613566565b801561075e5780601f106107335761010080835404028352916020019161075e565b820191906000526020600020905b81548152906001019060200180831161074157829003601f168201915b5050505050815260200190600101906106c6565b50505050945083805480602002602001604051908101604052809291908181526020016000905b828210156108455783829060005260206000200180546107b890613566565b80601f01602080910402602001604051908101604052809291908181526020018280546107e490613566565b80156108315780601f1061080657610100808354040283529160200191610831565b820191906000526020600020905b81548152906001019060200180831161081457829003601f168201915b505050505081526020019060010190610799565b505050509350828054806020026020016040519081016040528092919081815260200182805480156108cc57602002820191906000526020600020905b8160009054906101000a900473ffffffffffffffffffffffffffffffffffffffff1673ffffffffffffffffffffffffffffffffffffffff1681526020019060010190808311610882575b5050505050925081805480602002602001604051908101604052809291908181526020016000905b828210156109a057838290600052602060002001805461091390613566565b80601f016020809104026020016040519081016040528092919081815260200182805461093f90613566565b801561098c5780601f106109615761010080835404028352916020019161098c565b820191906000526020600020905b81548152906001019060200180831161096f57829003601f168201915b5050505050815260200190600101906108f4565b50505050915080805480602002602001604051908101604052809291908181526020016000905b82821015610a735783829060005260206000200180546109e690613566565b80601f0160208091040260200160405190810160405280929190818152602001828054610a1290613566565b8015610a5f5780601f10610a3457610100808354040283529160200191610a5f565b820191906000526020600020905b815481529060010190602001808311610a4257829003601f168201915b5050505050815260200190600101906109c7565b5050505090509a509a509a509a509a509a509a509a509a509a509a50909192939495969798999a565b602788604051610aac91906135d3565b908152602001604051809103902060009054906101000a900460ff1615610ad257600080fd5b601688908060018154018082558091505060019003906000526020600020016000909190919091509081610b069190613796565b50601787908060018154018082558091505060019003906000526020600020016000909190919091509081610b3b9190613796565b50601886908060018154018082558091505060019003906000526020600020016000909190919091509081610b709190613796565b50601985908060018154018082558091505060019003906000526020600020016000909190919091509081610ba59190613796565b50601a84908060018154018082558091505060019003906000526020600020016000909190919091509081610bda9190613796565b50601b83908060018154018082558091505060019003906000526020600020016000909190919091509081610c0f9190613796565b50601c82908060018154018082558091505060019003906000526020600020016000909190919091509081610c449190613796565b50601d81908060018154018082558091505060019003906000526020600020016000909190919091509081610c799190613796565b50601e600090806001815401808255809150506001900390600052602060002001600090919091909150556001602789604051610cb691906135d3565b908152602001604051809103902060006101000a81548160ff0219169083151502179055505050505050505050565b60006060602360009054906101000a900473ffffffffffffffffffffffffffffffffffffffff166024808054610d1a90613566565b80601f0160208091040260200160405190810160405280929190818152602001828054610d4690613566565b8015610d935780601f10610d6857610100808354040283529160200191610d93565b820191906000526020600020905b815481529060010190602001808311610d7657829003601f168201915b50505050509050915091509091565b606080601f602081805480602002602001604051908101604052809291908181526020016000905b82821015610e76578382906000526020600020018054610de990613566565b80601f0160208091040260200160405190810160405280929190818152602001828054610e1590613566565b8015610e625780601f10610e3757610100808354040283529160200191610e62565b820191906000526020600020905b815481529060010190602001808311610e4557829003601f168201915b505050505081526020019060010190610dca565b50505050915080805480602002602001604051908101604052809291908181526020016000905b82821015610f49578382906000526020600020018054610ebc90613566565b80601f0160208091040260200160405190810160405280929190818152602001828054610ee890613566565b8015610f355780601f10610f0a57610100808354040283529160200191610f35565b820191906000526020600020905b815481529060010190602001808311610f1857829003601f168201915b505050505081526020019060010190610e9d565b505050509050915091509091565b60005b6016805490508110156110a45760168181548110610f7b57610f7a613868565b5b90600052602060002001604051602001610f95919061391a565b6040516020818303038152906040528051906020012083604051602001610fbc91906135d3565b6040516020818303038152906040528051906020012003611091576000601e8281548110610fed57610fec613868565b5b90600052602060002001541461100257600080fd5b6001601e828154811061101857611017613868565b5b9060005260206000200181905550601f8290806001815401808255809150506001900390600052602060002001600090919091909150908161105a9190613796565b5060208390806001815401808255809150506001900390600052602060002001600090919091909150908161108f9190613796565b505b808061109c90613960565b915050610f5a565b505050565b60005b6016805490508110156111f657601681815481106110cd576110cc613868565b5b906000526020600020016040516020016110e7919061391a565b604051602081830303815290604052805190602001208360405160200161110e91906135d3565b60405160208183030381529060405280519060200120036111e3576001601e828154811061113f5761113e613868565b5b90600052602060002001541461115457600080fd5b6002601e828154811061116a57611169613868565b5b90600052602060002001819055506021829080600181540180825580915050600190039060005260206000200160009091909190915090816111ac9190613796565b506022839080600181540180825580915050600190039060005260206000200160009091909190915090816111e19190613796565b505b80806111ee90613960565b9150506110ac565b505050565b6060806060806060806060806060806060600b600c600d600e600f6010601160126013601460158a80548060200260200160405190810160405280929190818152602001828054801561126d57602002820191906000526020600020905b815481526020019060010190808311611259575b50505050509a5089805480602002602001604051908101604052809291908181526020016000905b828210156113415783829060005260206000200180546112b490613566565b80601f01602080910402602001604051908101604052809291908181526020018280546112e090613566565b801561132d5780601f106113025761010080835404028352916020019161132d565b820191906000526020600020905b81548152906001019060200180831161131057829003601f168201915b505050505081526020019060010190611295565b50505050995088805480602002602001604051908101604052809291908181526020016000905b8282101561141457838290600052602060002001805461138790613566565b80601f01602080910402602001604051908101604052809291908181526020018280546113b390613566565b80156114005780601f106113d557610100808354040283529160200191611400565b820191906000526020600020905b8154815290600101906020018083116113e357829003601f168201915b505050505081526020019060010190611368565b50505050985087805480602002602001604051908101604052809291908181526020016000905b828210156114e757838290600052602060002001805461145a90613566565b80601f016020809104026020016040519081016040528092919081815260200182805461148690613566565b80156114d35780601f106114a8576101008083540402835291602001916114d3565b820191906000526020600020905b8154815290600101906020018083116114b657829003601f168201915b50505050508152602001906001019061143b565b50505050975086805480602002602001604051908101604052809291908181526020016000905b828210156115ba57838290600052602060002001805461152d90613566565b80601f016020809104026020016040519081016040528092919081815260200182805461155990613566565b80156115a65780601f1061157b576101008083540402835291602001916115a6565b820191906000526020600020905b81548152906001019060200180831161158957829003601f168201915b50505050508152602001906001019061150e565b50505050965085805480602002602001604051908101604052809291908181526020016000905b8282101561168d57838290600052602060002001805461160090613566565b80601f016020809104026020016040519081016040528092919081815260200182805461162c90613566565b80156116795780601f1061164e57610100808354040283529160200191611679565b820191906000526020600020905b81548152906001019060200180831161165c57829003601f168201915b5050505050815260200190600101906115e1565b50505050955084805480602002602001604051908101604052809291908181526020016000905b828210156117605783829060005260206000200180546116d390613566565b80601f01602080910402602001604051908101604052809291908181526020018280546116ff90613566565b801561174c5780601f106117215761010080835404028352916020019161174c565b820191906000526020600020905b81548152906001019060200180831161172f57829003601f168201915b5050505050815260200190600101906116b4565b50505050945083805480602002602001604051908101604052809291908181526020016000905b828210156118335783829060005260206000200180546117a690613566565b80601f01602080910402602001604051908101604052809291908181526020018280546117d290613566565b801561181f5780601f106117f45761010080835404028352916020019161181f565b820191906000526020600020905b81548152906001019060200180831161180257829003601f168201915b505050505081526020019060010190611787565b505050509350828054806020026020016040519081016040528092919081815260200182805480156118ba57602002820191906000526020600020905b8160009054906101000a900473ffffffffffffffffffffffffffffffffffffffff1673ffffffffffffffffffffffffffffffffffffffff1681526020019060010190808311611870575b5050505050925081805480602002602001604051908101604052809291908181526020016000905b8282101561198e57838290600052602060002001805461190190613566565b80601f016020809104026020016040519081016040528092919081815260200182805461192d90613566565b801561197a5780601f1061194f5761010080835404028352916020019161197a565b820191906000526020600020905b81548152906001019060200180831161195d57829003601f168201915b5050505050815260200190600101906118e2565b50505050915080805480602002602001604051908101604052809291908181526020016000905b82821015611a615783829060005260206000200180546119d490613566565b80601f0160208091040260200160405190810160405280929190818152602001828054611a0090613566565b8015611a4d5780601f10611a2257610100808354040283529160200191611a4d565b820191906000526020600020905b815481529060010190602001808311611a3057829003601f168201915b5050505050815260200190600101906119b5565b5050505090509a509a509a509a509a509a509a509a509a509a509a50909192939495969798999a565b6060806021602281805480602002602001604051908101604052809291908181526020016000905b82821015611b5e578382906000526020600020018054611ad190613566565b80601f0160208091040260200160405190810160405280929190818152602001828054611afd90613566565b8015611b4a5780601f10611b1f57610100808354040283529160200191611b4a565b820191906000526020600020905b815481529060010190602001808311611b2d57829003601f168201915b505050505081526020019060010190611ab2565b50505050915080805480602002602001604051908101604052809291908181526020016000905b82821015611c31578382906000526020600020018054611ba490613566565b80601f0160208091040260200160405190810160405280929190818152602001828054611bd090613566565b8015611c1d5780601f10611bf257610100808354040283529160200191611c1d565b820191906000526020600020905b815481529060010190602001808311611c0057829003601f168201915b505050505081526020019060010190611b85565b505050509050915091509091565b602360009054906101000a900473ffffffffffffffffffffffffffffffffffffffff1673ffffffffffffffffffffffffffffffffffffffff163373ffffffffffffffffffffffffffffffffffffffff1614611c9957600080fd5b602560008473ffffffffffffffffffffffffffffffffffffffff1673ffffffffffffffffffffffffffffffffffffffff16815260200190815260200160002060009054906101000a900460ff1615611cf057600080fd5b60008b908060018154018082558091505060019003906000526020600020016000909190919091505560018a908060018154018082558091505060019003906000526020600020016000909190919091509081611d4d9190613796565b50600289908060018154018082558091505060019003906000526020600020016000909190919091509081611d829190613796565b50600388908060018154018082558091505060019003906000526020600020016000909190919091509081611db79190613796565b50600487908060018154018082558091505060019003906000526020600020016000909190919091509081611dec9190613796565b50600586908060018154018082558091505060019003906000526020600020016000909190919091509081611e219190613796565b50600685908060018154018082558091505060019003906000526020600020016000909190919091509081611e569190613796565b50600784908060018154018082558091505060019003906000526020600020016000909190919091509081611e8b9190613796565b506008839080600181540180825580915050600190039060005260206000200160009091909190916101000a81548173ffffffffffffffffffffffffffffffffffffffff021916908373ffffffffffffffffffffffffffffffffffffffff160217905550600982908060018154018082558091505060019003906000526020600020016000909190919091509081611f239190613796565b50600a81908060018154018082558091505060019003906000526020600020016000909190919091509081611f589190613796565b506001602560008573ffffffffffffffffffffffffffffffffffffffff1673ffffffffffffffffffffffffffffffffffffffff16815260200190815260200160002060006101000a81548160ff0219169083151502179055505050505050505050505050565b602660008473ffffffffffffffffffffffffffffffffffffffff1673ffffffffffffffffffffffffffffffffffffffff16815260200190815260200160002060009054906101000a900460ff161561201557600080fd5b600b8b9080600181540180825580915050600190039060005260206000200160009091909190915055600c8a9080600181540180825580915050600190039060005260206000200160009091909190915090816120729190613796565b50600d899080600181540180825580915050600190039060005260206000200160009091909190915090816120a79190613796565b50600e889080600181540180825580915050600190039060005260206000200160009091909190915090816120dc9190613796565b50600f879080600181540180825580915050600190039060005260206000200160009091909190915090816121119190613796565b506010869080600181540180825580915050600190039060005260206000200160009091909190915090816121469190613796565b5060118590806001815401808255809150506001900390600052602060002001600090919091909150908161217b9190613796565b506012849080600181540180825580915050600190039060005260206000200160009091909190915090816121b09190613796565b506013839080600181540180825580915050600190039060005260206000200160009091909190916101000a81548173ffffffffffffffffffffffffffffffffffffffff021916908373ffffffffffffffffffffffffffffffffffffffff1602179055506014829080600181540180825580915050600190039060005260206000200160009091909190915090816122489190613796565b5060158190806001815401808255809150506001900390600052602060002001600090919091909150908161227d9190613796565b506001602660008573ffffffffffffffffffffffffffffffffffffffff1673ffffffffffffffffffffffffffffffffffffffff16815260200190815260200160002060006101000a81548160ff0219169083151502179055505050505050505050505050565b60608060608060608060608060606016601760186019601a601b601c601d601e88805480602002602001604051908101604052809291908181526020016000905b828210156123d057838290600052602060002001805461234390613566565b80601f016020809104026020016040519081016040528092919081815260200182805461236f90613566565b80156123bc5780601f10612391576101008083540402835291602001916123bc565b820191906000526020600020905b81548152906001019060200180831161239f57829003601f168201915b505050505081526020019060010190612324565b50505050985087805480602002602001604051908101604052809291908181526020016000905b828210156124a357838290600052602060002001805461241690613566565b80601f016020809104026020016040519081016040528092919081815260200182805461244290613566565b801561248f5780601f106124645761010080835404028352916020019161248f565b820191906000526020600020905b81548152906001019060200180831161247257829003601f168201915b5050505050815260200190600101906123f7565b50505050975086805480602002602001604051908101604052809291908181526020016000905b828210156125765783829060005260206000200180546124e990613566565b80601f016020809104026020016040519081016040528092919081815260200182805461251590613566565b80156125625780601f1061253757610100808354040283529160200191612562565b820191906000526020600020905b81548152906001019060200180831161254557829003601f168201915b5050505050815260200190600101906124ca565b50505050965085805480602002602001604051908101604052809291908181526020016000905b828210156126495783829060005260206000200180546125bc90613566565b80601f01602080910402602001604051908101604052809291908181526020018280546125e890613566565b80156126355780601f1061260a57610100808354040283529160200191612635565b820191906000526020600020905b81548152906001019060200180831161261857829003601f168201915b50505050508152602001906001019061259d565b50505050955084805480602002602001604051908101604052809291908181526020016000905b8282101561271c57838290600052602060002001805461268f90613566565b80601f01602080910402602001604051908101604052809291908181526020018280546126bb90613566565b80156127085780601f106126dd57610100808354040283529160200191612708565b820191906000526020600020905b8154815290600101906020018083116126eb57829003601f168201915b505050505081526020019060010190612670565b50505050945083805480602002602001604051908101604052809291908181526020016000905b828210156127ef57838290600052602060002001805461276290613566565b80601f016020809104026020016040519081016040528092919081815260200182805461278e90613566565b80156127db5780601f106127b0576101008083540402835291602001916127db565b820191906000526020600020905b8154815290600101906020018083116127be57829003601f168201915b505050505081526020019060010190612743565b50505050935082805480602002602001604051908101604052809291908181526020016000905b828210156128c257838290600052602060002001805461283590613566565b80601f016020809104026020016040519081016040528092919081815260200182805461286190613566565b80156128ae5780601f10612883576101008083540402835291602001916128ae565b820191906000526020600020905b81548152906001019060200180831161289157829003601f168201915b505050505081526020019060010190612816565b50505050925081805480602002602001604051908101604052809291908181526020016000905b8282101561299557838290600052602060002001805461290890613566565b80601f016020809104026020016040519081016040528092919081815260200182805461293490613566565b80156129815780601f1061295657610100808354040283529160200191612981565b820191906000526020600020905b81548152906001019060200180831161296457829003601f168201915b5050505050815260200190600101906128e9565b505050509150808054806020026020016040519081016040528092919081815260200182805480156129e657602002820191906000526020600020905b8154815260200190600101908083116129d2575b50505050509050985098509850985098509850985098509850909192939495969798565b600081519050919050565b600082825260208201905092915050565b6000819050602082019050919050565b6000819050919050565b612a4981612a36565b82525050565b6000612a5b8383612a40565b60208301905092915050565b6000602082019050919050565b6000612a7f82612a0a565b612a898185612a15565b9350612a9483612a26565b8060005b83811015612ac5578151612aac8882612a4f565b9750612ab783612a67565b925050600181019050612a98565b5085935050505092915050565b600081519050919050565b600082825260208201905092915050565b6000819050602082019050919050565b600081519050919050565b600082825260208201905092915050565b60005b83811015612b38578082015181840152602081019050612b1d565b60008484015250505050565b6000601f19601f8301169050919050565b6000612b6082612afe565b612b6a8185612b09565b9350612b7a818560208601612b1a565b612b8381612b44565b840191505092915050565b6000612b9a8383612b55565b905092915050565b6000602082019050919050565b6000612bba82612ad2565b612bc48185612add565b935083602082028501612bd685612aee565b8060005b85811015612c125784840389528151612bf38582612b8e565b9450612bfe83612ba2565b925060208a01995050600181019050612bda565b50829750879550505050505092915050565b600081519050919050565b600082825260208201905092915050565b6000819050602082019050919050565b600073ffffffffffffffffffffffffffffffffffffffff82169050919050565b6000612c7b82612c50565b9050919050565b612c8b81612c70565b82525050565b6000612c9d8383612c82565b60208301905092915050565b6000602082019050919050565b6000612cc182612c24565b612ccb8185612c2f565b9350612cd683612c40565b8060005b83811015612d07578151612cee8882612c91565b9750612cf983612ca9565b925050600181019050612cda565b5085935050505092915050565b6000610160820190508181036000830152612d2f818e612a74565b90508181036020830152612d43818d612baf565b90508181036040830152612d57818c612baf565b90508181036060830152612d6b818b612baf565b90508181036080830152612d7f818a612baf565b905081810360a0830152612d938189612baf565b905081810360c0830152612da78188612baf565b905081810360e0830152612dbb8187612baf565b9050818103610100830152612dd08186612cb6565b9050818103610120830152612de58185612baf565b9050818103610140830152612dfa8184612baf565b90509c9b505050505050505050505050565b6000604051905090565b600080fd5b600080fd5b600080fd5b600080fd5b7f4e487b7100000000000000000000000000000000000000000000000000000000600052604160045260246000fd5b612e6282612b44565b810181811067ffffffffffffffff82111715612e8157612e80612e2a565b5b80604052505050565b6000612e94612e0c565b9050612ea08282612e59565b919050565b600067ffffffffffffffff821115612ec057612ebf612e2a565b5b612ec982612b44565b9050602081019050919050565b82818337600083830152505050565b6000612ef8612ef384612ea5565b612e8a565b905082815260208101848484011115612f1457612f13612e25565b5b612f1f848285612ed6565b509392505050565b600082601f830112612f3c57612f3b612e20565b5b8135612f4c848260208601612ee5565b91505092915050565b600080600080600080600080610100898b031215612f7657612f75612e16565b5b600089013567ffffffffffffffff811115612f9457612f93612e1b565b5b612fa08b828c01612f27565b985050602089013567ffffffffffffffff811115612fc157612fc0612e1b565b5b612fcd8b828c01612f27565b975050604089013567ffffffffffffffff811115612fee57612fed612e1b565b5b612ffa8b828c01612f27565b965050606089013567ffffffffffffffff81111561301b5761301a612e1b565b5b6130278b828c01612f27565b955050608089013567ffffffffffffffff81111561304857613047612e1b565b5b6130548b828c01612f27565b94505060a089013567ffffffffffffffff81111561307557613074612e1b565b5b6130818b828c01612f27565b93505060c089013567ffffffffffffffff8111156130a2576130a1612e1b565b5b6130ae8b828c01612f27565b92505060e089013567ffffffffffffffff8111156130cf576130ce612e1b565b5b6130db8b828c01612f27565b9150509295985092959890939650565b6130f481612c70565b82525050565b600082825260208201905092915050565b600061311682612afe565b61312081856130fa565b9350613130818560208601612b1a565b61313981612b44565b840191505092915050565b600060408201905061315960008301856130eb565b818103602083015261316b818461310b565b90509392505050565b6000604082019050818103600083015261318e8185612baf565b905081810360208301526131a28184612baf565b90509392505050565b600080604083850312156131c2576131c1612e16565b5b600083013567ffffffffffffffff8111156131e0576131df612e1b565b5b6131ec85828601612f27565b925050602083013567ffffffffffffffff81111561320d5761320c612e1b565b5b61321985828601612f27565b9150509250929050565b61322c81612a36565b811461323757600080fd5b50565b60008135905061324981613223565b92915050565b61325881612c70565b811461326357600080fd5b50565b6000813590506132758161324f565b92915050565b60008060008060008060008060008060006101608c8e0312156132a1576132a0612e16565b5b60006132af8e828f0161323a565b9b505060208c013567ffffffffffffffff8111156132d0576132cf612e1b565b5b6132dc8e828f01612f27565b9a505060408c013567ffffffffffffffff8111156132fd576132fc612e1b565b5b6133098e828f01612f27565b99505060608c013567ffffffffffffffff81111561332a57613329612e1b565b5b6133368e828f01612f27565b98505060808c013567ffffffffffffffff81111561335757613356612e1b565b5b6133638e828f01612f27565b97505060a08c013567ffffffffffffffff81111561338457613383612e1b565b5b6133908e828f01612f27565b96505060c08c013567ffffffffffffffff8111156133b1576133b0612e1b565b5b6133bd8e828f01612f27565b95505060e08c013567ffffffffffffffff8111156133de576133dd612e1b565b5b6133ea8e828f01612f27565b9450506101006133fc8e828f01613266565b9350506101208c013567ffffffffffffffff81111561341e5761341d612e1b565b5b61342a8e828f01612f27565b9250506101408c013567ffffffffffffffff81111561344c5761344b612e1b565b5b6134588e828f01612f27565b9150509295989b509295989b9093969950565b6000610120820190508181036000830152613486818c612baf565b9050818103602083015261349a818b612baf565b905081810360408301526134ae818a612baf565b905081810360608301526134c28189612baf565b905081810360808301526134d68188612baf565b905081810360a08301526134ea8187612baf565b905081810360c08301526134fe8186612baf565b905081810360e08301526135128185612baf565b90508181036101008301526135278184612a74565b90509a9950505050505050505050565b7f4e487b7100000000000000000000000000000000000000000000000000000000600052602260045260246000fd5b6000600282049050600182168061357e57607f821691505b60208210810361359157613590613537565b5b50919050565b600081905092915050565b60006135ad82612afe565b6135b78185613597565b93506135c7818560208601612b1a565b80840191505092915050565b60006135df82846135a2565b915081905092915050565b60008190508160005260206000209050919050565b60006020601f8301049050919050565b600082821b905092915050565b60006008830261364c7fffffffffffffffffffffffffffffffffffffffffffffffffffffffffffffffff8261360f565b613656868361360f565b95508019841693508086168417925050509392505050565b6000819050919050565b600061369361368e61368984612a36565b61366e565b612a36565b9050919050565b6000819050919050565b6136ad83613678565b6136c16136b98261369a565b84845461361c565b825550505050565b600090565b6136d66136c9565b6136e18184846136a4565b505050565b5b81811015613705576136fa6000826136ce565b6001810190506136e7565b5050565b601f82111561374a5761371b816135ea565b613724846135ff565b81016020851015613733578190505b61374761373f856135ff565b8301826136e6565b50505b505050565b600082821c905092915050565b600061376d6000198460080261374f565b1980831691505092915050565b6000613786838361375c565b9150826002028217905092915050565b61379f82612afe565b67ffffffffffffffff8111156137b8576137b7612e2a565b5b6137c28254613566565b6137cd828285613709565b600060209050601f83116001811461380057600084156137ee578287015190505b6137f8858261377a565b865550613860565b601f19841661380e866135ea565b60005b8281101561383657848901518255600182019150602085019450602081019050613811565b86831015613853578489015161384f601f89168261375c565b8355505b6001600288020188555050505b505050505050565b7f4e487b7100000000000000000000000000000000000000000000000000000000600052603260045260246000fd5b600081546138a481613566565b6138ae8186613597565b945060018216600081146138c957600181146138de57613911565b60ff1983168652811515820286019350613911565b6138e7856135ea565b60005b83811015613909578154818901526001820191506020810190506138ea565b838801955050505b50505092915050565b60006139268284613897565b915081905092915050565b7f4e487b7100000000000000000000000000000000000000000000000000000000600052601160045260246000fd5b600061396b82612a36565b91507fffffffffffffffffffffffffffffffffffffffffffffffffffffffffffffffff820361399d5761399c613931565b5b60018201905091905056fea264697066735822122029c022d83433e738cc5c445f8ba77d381b9eac1d0efa96830ac4ecba8067ca2b64736f6c63430008130033",
  "immutableReferences": {},
  "source": "// SPDX-License-Identifier: MIT\npragma solidity >=0.4.22 <0.9.0;\n\ncontract register {\n  uint[] _dids;\n  string[] _dnames;\n  string[] _dcontacts;\n  string[] _daddress;\n  string[] _demails;\n  string[] _dphones;\n  string[] _dtins;\n  string[] _dbrns;\n  address[] _dwallets;\n  string[] _demergency;\n  string[] _dpasswords;\n\n  uint[] _sids;\n  string[] _snames;\n  string[] _scontacts;\n  string[] _saddress;\n  string[] _semails;\n  string[] _sphones;\n  string[] _stins;\n  string[] _sbrns;\n  address[] _swallets;\n  string[] _semergency;\n  string[] _spasswords;\n\n  string[] _productId;\n  string[] _productName;\n  string[] _manufacturerInfo;\n  string[] _lotNumber;\n  string[] _manufacturingDate;\n  string[] _expirationDate;\n  string[] _serialNumber;\n  string[] _uid;\n  uint[] _productstatus;\n\n  string[] _tdistributor;\n  string[] _tproduct;\n\n  string[] _ssupplier;\n  string[] _sproduct;\n\n\n  address manufacturer;\n  string manuPassword=\"1234\";\n\n  mapping(address=>bool) _registeredDistributors;\n  mapping(address=>bool) _registeredSuppliers;\n  mapping(string=>bool) _registeredProducts;\n  \n  constructor() {\n    manufacturer=msg.sender;\n  }\n\n  modifier onlyManufacturer(){\n    require(msg.sender==manufacturer);\n    _;\n  }\n\n  function viewManufacturer() public view returns(address,string memory){\n    return (manufacturer,manuPassword);\n  }\n\n  function addDistributor(uint did,string memory dname,string memory dcontact,string memory daddress,string memory demail,string memory dphone,string memory dtin,string memory dbrn,address wallet,string memory demergency,string memory dpassword) public onlyManufacturer{\n    require(!_registeredDistributors[wallet]);\n\n    _dids.push(did);\n    _dnames.push(dname);\n    _dcontacts.push(dcontact);\n    _daddress.push(daddress);\n    _demails.push(demail);\n    _dphones.push(dphone);\n    _dtins.push(dtin);\n    _dbrns.push(dbrn);\n    _dwallets.push(wallet);\n    _demergency.push(demergency);\n    _dpasswords.push(dpassword);\n\n    _registeredDistributors[wallet]=true;\n  }\n\n  function viewDistributors() public view returns(uint[] memory,string[] memory,string[] memory,string[] memory,string[] memory,string[] memory,string[] memory,string[] memory,address[] memory,string[] memory,string[] memory) {\n    return(_dids,_dnames,_dcontacts,_daddress,_demails,_dphones,_dtins,_dbrns,_dwallets,_demergency,_dpasswords);\n  }\n\n  function addSupplier(uint sid,string memory sname,string memory scontact,string memory saddress,string memory semail,string memory sphone,string memory stin,string memory sbrn,address swallet,string memory semergency,string memory spassword) public {\n    require(!_registeredSuppliers[swallet]);\n\n    _sids.push(sid);\n    _snames.push(sname);\n    _scontacts.push(scontact);\n    _saddress.push(saddress);\n    _semails.push(semail);\n    _sphones.push(sphone);\n    _stins.push(stin);\n    _sbrns.push(sbrn);\n    _swallets.push(swallet);\n    _semergency.push(semergency);\n    _spasswords.push(spassword);\n\n    _registeredSuppliers[swallet]=true;\n  }\n\n  function viewSuppliers() public view returns(uint[] memory,string[] memory,string[] memory,string[] memory,string[] memory,string[] memory,string[] memory,string[] memory,address[] memory,string[] memory,string[] memory) {\n    return(_sids,_snames,_scontacts,_saddress,_semails,_sphones,_stins,_sbrns,_swallets,_semergency,_spasswords);\n  }\n\n  function addProduct(\n      string memory productid,\n      string memory productname,\n      string memory manufacturerinfo,\n      string memory lotnumber,\n      string memory manufacturingdate,\n      string memory expirationdate,\n      string memory serialnumber,\n      string memory uid) public \n  {\n        \n        require(!_registeredProducts[productid]);\n        \n        _productId.push(productid);\n        _productName.push(productname);\n        _manufacturerInfo.push(manufacturerinfo);\n        _lotNumber.push(lotnumber);\n        _manufacturingDate.push(manufacturingdate);\n        _expirationDate.push(expirationdate);\n        _serialNumber.push(serialnumber);\n        _uid.push(uid);\n        _productstatus.push(0);\n\n        _registeredProducts[productid]=true;\n  }\n\n  function viewProducts() public view returns(string[] memory,string[] memory,string[] memory,string[] memory,string[] memory,string[] memory,string[] memory,string[] memory,uint[] memory){\n    return (\n      _productId,\n      _productName,\n      _manufacturerInfo,\n      _lotNumber,\n      _manufacturingDate,\n      _expirationDate,\n      _serialNumber,\n      _uid,\n      _productstatus);\n  }\n\n  function sendtodistributor(string memory productid,string memory distributorid) public {\n\n    uint i;\n    for(i=0;i<_productId.length;i++){\n      if((keccak256(abi.encodePacked(productid)) == keccak256(abi.encodePacked(_productId[i])))){\n        require(_productstatus[i]==0);\n        _productstatus[i]=1;\n        _tdistributor.push(distributorid);\n        _tproduct.push(productid);\n      }\n    }\n  }\n\n  function viewDistribution() public view returns(string[] memory,string[] memory){\n    return(_tdistributor,_tproduct);\n  }\n\n  function sendtosupplier(string memory productid,string memory supplierid) public {\n    uint i;\n    for(i=0;i<_productId.length;i++){\n      if((keccak256(abi.encodePacked(productid)) == keccak256(abi.encodePacked(_productId[i])))){\n        require(_productstatus[i]==1);\n        _productstatus[i]=2;\n        _ssupplier.push(supplierid);\n        _sproduct.push(productid);\n      }\n    }\n  }\n\n  function viewSupply() public view returns(string[] memory,string[] memory){\n    return(_ssupplier,_sproduct);\n  }\n\n}\n",
  "sourcePath": "/Users/ms/Desktop/medical-supplychain-kits/contracts/register.sol",
  "compiler": {
    "name": "solc",
    "version": "0.8.19+commit.7dd6d404.Emscripten.clang"
  },
  "schemaVersion": "3.4.16",
  "updatedAt": "2024-03-04T18:29:06.918Z",
  "networkType": "ethereum",
  "devdoc": {
    "kind": "dev",
    "methods": {},
    "version": 1
  },
  "userdoc": {
    "kind": "user",
    "methods": {},
    "version": 1
  }
}